:100000000C942A000C943F000C943F000C943F0089
:100010000C943F000C943F000C943F000C943F0064
:100020000C943F000C943F000C943F000C943F0054
:100030000C943F000C943F000C943F000C943F0044
:100040000C943F000C943F000C943F000C943F0034
:100050000C943F0011241FBECFE5D8E0DEBFCDBF1A
:1000600010E0A0E6B0E0EAE7FCE102C005900D92E6
:10007000AA37B107D9F70E94040D0C943B0E0C94DB
:100080000000EF92FF920F931F937B018C0120E001
:1000900030E040E05FE40E94410388238CF0C80117
:1000A000B70120E030E040E05FE40E94B9010E9427
:1000B000A1039B01AC01205030404040504806C095
:1000C000C801B7010E94A1039B01AC01B901CA019B
:1000D0001F910F91FF90EF900895A0E0B0E0E3E74B
:1000E000F0E00C94040EDC012B01FA019C9192309B
:1000F00008F439C1EB018881823008F433C19430AF
:1001000069F4843009F02FC111969C91119789816F
:10011000981709F428C1A0E6B0E025C1843009F49D
:1001200021C18230A9F4923009F01DC19A01AD01BC
:1001300088E0EA010990AE01E90109929E0181502F
:10014000C1F7E201898111969C918923818308C1BD
:10015000923009F407C112962D903C901397EB0151
:100160008A819B811496AD90BD90CD90DC901797BD
:10017000EC80FD800E811F819101281B390BB90194
:1001800037FF04C066277727621B730B6032710547
:100190000CF061C0121613066CF537014801062EEB
:1001A00004C096948794779467940A94D2F721E0D8
:1001B00030E040E050E004C0220F331F441F551FC1
:1001C0006A95D2F721503040404050402E213F21C7
:1001D00040235123211531054105510521F021E02E
:1001E00030E040E050E079018A01E628F72808294C
:1001F00019293CC0232BD1F1260E371E35014601AB
:10020000062E04C096948794779467940A94D2F744
:1002100021E030E040E050E004C0220F331F441FD3
:10022000551F6A95D2F721503040404050402A2156
:100230003B214C215D21211531054105510521F05E
:1002400021E030E040E050E059016A01A628B728DB
:10025000C828D9280BC0821593052CF01C01AA24AC
:10026000BB24650103C0EE24FF24870111969C91F5
:10027000D20111968C91981709F445C0992339F051
:10028000A80197012A193B094C095D0906C0A6017E
:1002900095012E193F09400B510B57FD08C01182E3
:1002A0003382228224833583468357831DC081E0B5
:1002B00081833382228288279927DC01821B930B5A
:1002C000A40BB50B84839583A683B7830DC0220F3F
:1002D000331F441F551F24833583468357838281F0
:1002E000938101979383828324813581468157814D
:1002F000DA01C9010197A109B1098F5F9F4FAF4F83
:10030000BF4328F30BC0918333822282EA0CFB1C8B
:100310000C1D1D1DE482F5820683178383E0808314
:10032000248135814681578157FF1AC0C901AA2708
:1003300097FDA095BA2F81709070A070B0705695FF
:10034000479537952795822B932BA42BB52B848328
:100350009583A683B7838281938101969383828359
:10036000DF0101C0D201CD01CDB7DEB7E2E10C94CF
:10037000200EA0E2B0E0EFEBF1E00C94100E6983E8
:100380007A838B839C832D833E834F835887E9E058
:10039000EE2EF12CEC0EFD1ECE010196B7010E944F
:1003A000CA048E010F5E1F4FCE010596B8010E9450
:1003B000CA048A8991E089278A8BC701B801AE01F6
:1003C000475E5F4F0E946D000E94F503A096E6E035
:1003D0000C942C0EA0E2B0E0E0EFF1E00C94100ED3
:1003E00069837A838B839C832D833E834F835887D5
:1003F000F9E0EF2EF12CEC0EFD1ECE010196B701B7
:100400000E94CA048E010F5E1F4FCE010596B801EF
:100410000E94CA04C701B801AE01475E5F4F0E9447
:100420006D000E94F503A096E6E00C942C0EA0E26D
:10043000B0E0EDE1F2E00C94040E69837A838B83E3
:100440009C832D833E834F835887CE010196BE0146
:10045000675F7F4F0E94CA04CE010596BE016F5EA2
:100460007F4F0E94CA049985923088F08989823032
:10047000C8F0943019F4823051F404C0843029F467
:10048000923081F480E690E0C6C0923049F420E0DA
:100490009A858A89981321E02A87CE010996BBC0E4
:1004A000823049F420E09A858A89981321E02A8BCA
:1004B000CE014196B0C02D843E844F8458886D880B
:1004C0007E888F88988CEE24FF248701AA24BB2481
:1004D000650140E050E060E070E0E0E0F0E0C10184
:1004E00081709070892BE9F0E60CF71C081D191D2E
:1004F0009A01AB012A0D3B1D4C1D5D1D80E090E073
:10050000A0E0B0E0E614F7040805190520F481E046
:1005100090E0A0E0B0E0BA01A901480F591F6A1F9E
:100520007B1FAA0CBB1CCC1CDD1C97FE08C081E005
:1005300090E0A0E0B0E0A82AB92ACA2ADB2A3196C6
:10054000E032F10549F0660C771C881C991C569422
:10055000479437942794C3CFFA85EA892B893C893D
:100560008B859C85280F391F2E5F3F4F17C0CA010E
:1005700081709070892B61F016950795F794E79438
:1005800080E090E0A0E0B0E8E82AF92A0A2B1B2BD3
:1005900076956795579547952F5F3F4F77FDE7CF46
:1005A0000CC0440F551F661F771F17FD4160EE0CEE
:1005B000FF1C001F111F21503040403090E05907B0
:1005C00090E0690790E4790760F32B8F3C8FDB01A3
:1005D000CA018F779070A070B07080349105A1052A
:1005E000B10561F447FD0AC0E114F10401051105EC
:1005F00029F0405C5F4F6F4F7F4F40781A8EFE1797
:1006000011F081E08A8F4D8F5E8F6F8F78A383E02A
:10061000898FCE0149960E94F503A096E2E10C94E1
:10062000200EA8E1B0E0E7E1F3E00C94100E69833E
:100630007A838B839C832D833E834F83588789E005
:10064000E82EF12CEC0EFD1ECE010196B7010E94A2
:10065000CA048E010F5E1F4FCE010596B8010E949D
:10066000CA048985823040F08989823028F0C70128
:10067000B8010E94420501C08FEF6896E6E00C9435
:100680002C0EA8E1B0E0E7E4F3E00C94100E6983CF
:100690007A838B839C832D833E834F83588789E0A5
:1006A000E82EF12CEC0EFD1ECE010196B7010E9442
:1006B000CA048E010F5E1F4FCE010596B8010E943D
:1006C000CA048985823040F08989823028F0C701C8
:1006D000B8010E94420501C08FEF6896E6E00C94D5
:1006E0002C0EA8E1B0E0E7E7F3E00C94100E69836C
:1006F0007A838B839C832D833E834F83588789E045
:10070000E82EF12CEC0EFD1ECE010196B7010E94E1
:10071000CA048E010F5E1F4FCE010596B8010E94DC
:10072000CA048985823040F08989823028F0C70167
:10073000B8010E94420501C081E06896E6E00C9491
:100740002C0EACE0B0E0E7EAF3E00C94140E698301
:100750007A838B839C83CE010196BE016B5F7F4FB2
:100760000E94CA048D81823061F1823050F1843060
:1007700021F48E81882351F12EC02F81388537FDD9
:1007800020C06E812F3131051CF06623F9F023C0A3
:100790008EE190E0821B930B29853A854B855C8521
:1007A00004C056954795379527958A95D2F76623C5
:1007B000B1F050954095309521953F4F4F4F5F4F89
:1007C0000EC020E030E040E050E009C02FEF3FEFE6
:1007D0004FEF5FE704C020E030E040E050E8B901AF
:1007E000CA012C96E2E00C94300EDF92EF92FF9259
:1007F0000F931F93FC01E480F58006811781D1805F
:100800008081823048F480E090E0A0E1B0E0E82A06
:10081000F92A0A2B1B2BA5C0843009F49FC0823013
:1008200021F4EE24FF24870105C0E114F104010541
:10083000110519F4E0E0F0E096C0628173819FEF4A
:10084000623879070CF05BC022E83FEF261B370BBC
:100850002A3131052CF020E030E040E050E02AC0A1
:10086000B801A701022E04C0769567955795479564
:100870000A94D2F781E090E0A0E0B0E004C0880FD5
:10088000991FAA1FBB1F2A95D2F70197A109B10989
:100890008E219F21A023B1230097A105B10521F04E
:1008A00081E090E0A0E0B0E09A01AB01282B392B69
:1008B0004A2B5B2BDA01C9018F779070A070B07062
:1008C00080349105A105B10539F427FF09C0205CEA
:1008D0003F4F4F4F5F4F04C0215C3F4F4F4F5F4F23
:1008E000E0E0F0E02030A0E03A07A0E04A07A0E412
:1008F0005A0710F0E1E0F0E079018A0127C0603882
:10090000710564F5FB01E158FF4FD801C7018F77EE
:100910009070A070B07080349105A105B10539F4D4
:10092000E7FE0DC080E490E0A0E0B0E004C08FE3FB
:1009300090E0A0E0B0E0E80EF91E0A1F1B1F17FFB1
:1009400005C016950795F794E794319687E01695BC
:100950000795F794E7948A95D1F705C0EE24FF2414
:100960008701EFEFF0E06E2F679566276795902F70
:100970009F77D794DD24D7948E2F8695492F462BC9
:10098000582F5D29B701CA011F910F91FF90EF9079
:10099000DF900895FC01DB01408151812281622FAB
:1009A0006F7770E0221F2227221F9381892F880FE3
:1009B000822B282F30E0991F9927991F11969C931D
:1009C000119721153105A9F54115510561057105ED
:1009D00011F482E037C082E89FEF13969C938E93C8
:1009E00012979A01AB0167E0220F331F441F551F76
:1009F0006A95D1F783E08C930DC0220F331F441FFB
:100A0000551F12968D919C911397019713969C9365
:100A10008E931297203080E0380780E0480780E40A
:100A2000580758F314962D933D934D935C93179765
:100A300008952F3F310579F4411551056105710580
:100A400019F484E08C93089564FF03C081E08C93D3
:100A500012C01C9210C02F57304013963C932E9317
:100A6000129783E08C9387E0440F551F661F771F12
:100A70008A95D1F7706414964D935D936D937C9332
:100A8000179708951F93DC01FB019C91923008F4A5
:100A900047C08081823008F443C0943051F41196ED
:100AA0001C91843099F58181682F70E0611B710978
:100AB0003FC0843021F0923031F48230B9F181812D
:100AC000882389F12DC011961C9111978230F1F085
:100AD00081811817D9F412962D913C911397828138
:100AE00093818217930794F028173907BCF0149666
:100AF0008D919D910D90BC91A02D248135814681D1
:100B00005781281739074A075B0718F4112341F06A
:100B10000AC082179307A407B50740F4112319F000
:100B200061E070E005C06FEF7FEF02C060E070E051
:100B3000CB011F910895DF93CF93CDB7DEB7EAE3E2
:100B4000F0E08FEF8083E7E3F0E08FEF8083E4E372
:100B5000F0E08FE08083E1E3F0E08FE08083EBE37F
:100B6000F0E01082E8E3F0E01082E5E3F0E08FEFE0
:100B70008083E2E3F0E08FEF8083CF91DF910895EF
:100B8000DF93CF93CDB7DEB72D970FB6F894DEBFC6
:100B90000FBECDBF89836A834B838981843008F07F
:100BA00004C18A81883008F000C18981282F30E093
:100BB0003D872C878C859D858130910509F44FC038
:100BC0002C853D85223031052CF48C859D85009740
:100BD00071F0EBC02C853D852230310509F477C0DA
:100BE0008C859D858330910509F4A9C0DEC08B8179
:100BF000282F30E03B872A878A859B850097D1F094
:100C00002A853B852130310509F0CFC0AAE3B0E049
:100C1000EAE3F0E08081482F8A81282F30E081E0EC
:100C200090E0022E02C0880F991F0A94E2F7842BED
:100C30008C93BBC0AAE3B0E0EAE3F0E08081482FE8
:100C40008A81282F30E081E090E0022E02C0880FD8
:100C5000991F0A94E2F7809584238C93A6C08B8118
:100C6000282F30E039872887888599850097D1F02B
:100C7000288539852130310509F097C0A7E3B0E018
:100C8000E7E3F0E08081482F8A81282F30E081E07F
:100C900090E0022E02C0880F991F0A94E2F7842B7D
:100CA0008C9383C0A7E3B0E0E7E3F0E08081482FB6
:100CB0008A81282F30E081E090E0022E02C0880F68
:100CC000991F0A94E2F7809584238C936EC08B81E0
:100CD000282F30E03F832E838E819F810097D1F0B3
:100CE0002E813F812130310509F05FC0A4E3B0E0DF
:100CF000E4E3F0E08081482F8A81282F30E081E012
:100D000090E0022E02C0880F991F0A94E2F7842B0C
:100D10008C934BC0A4E3B0E0E4E3F0E08081482F83
:100D20008A81282F30E081E090E0022E02C0880FF7
:100D3000991F0A94E2F7809584238C9336C08B81A7
:100D4000282F30E03D832C838C819D810097C9F052
:100D50002C813D812130310541F5A1E3B0E0E1E393
:100D6000F0E08081482F8A81282F30E081E090E0F8
:100D7000022E02C0880F991F0A94E2F7842B8C93ED
:100D800014C0A1E3B0E0E1E3F0E08081482F8A8164
:100D9000282F30E081E090E0022E02C0880F991FDA
:100DA0000A94E2F7809584238C932D960FB6F894DD
:100DB000DEBF0FBECDBFCF91DF910895DF93CF93FC
:100DC000CDB7DEB72D970FB6F894DEBF0FBECDBFFF
:100DD00089836A834B838981843008F004C18A81C6
:100DE000883008F000C18981282F30E03D872C87AA
:100DF0008C859D858130910509F44FC02C853D85FA
:100E0000223031052CF48C859D85009771F0EBC064
:100E10002C853D852230310509F477C08C859D8570
:100E20008330910509F4A9C0DEC08B81282F30E002
:100E30003B872A878A859B850097D1F02A853B8549
:100E40002130310509F0CFC0ABE3B0E0EBE3F0E0D7
:100E50008081482F8A81282F30E081E090E0022EA7
:100E600002C0880F991F0A94E2F7842B8C93BBC0B1
:100E7000ABE3B0E0EBE3F0E08081482F8A81282FDC
:100E800030E081E090E0022E02C0880F991F0A94A2
:100E9000E2F7809584238C93A6C08B81282F30E0C5
:100EA00039872887888599850097D1F028853985E5
:100EB0002130310509F097C0A8E3B0E0E8E3F0E0A5
:100EC0008081482F8A81282F30E081E090E0022E37
:100ED00002C0880F991F0A94E2F7842B8C9383C079
:100EE000A8E3B0E0E8E3F0E08081482F8A81282F72
:100EF00030E081E090E0022E02C0880F991F0A9432
:100F0000E2F7809584238C936EC08B81282F30E08C
:100F10003F832E838E819F810097D1F02E813F8168
:100F20002130310509F05FC0A5E3B0E0E5E3F0E072
:100F30008081482F8A81282F30E081E090E0022EC6
:100F400002C0880F991F0A94E2F7842B8C934BC040
:100F5000A5E3B0E0E5E3F0E08081482F8A81282F07
:100F600030E081E090E0022E02C0880F991F0A94C1
:100F7000E2F7809584238C9336C08B81282F30E054
:100F80003D832C838C819D810097C9F02C813D810C
:100F90002130310541F5A2E3B0E0E2E3F0E08081E9
:100FA000482F8A81282F30E081E090E0022E02C095
:100FB000880F991F0A94E2F7842B8C9314C0A2E344
:100FC000B0E0E2E3F0E08081482F8A81282F30E012
:100FD00081E090E0022E02C0880F991F0A94E2F788
:100FE000809584238C932D960FB6F894DEBF0FBEA8
:100FF000CDBFCF91DF910895DF93CF9300D000D084
:101000000F92CDB7DEB78A836B8382E089838A81B2
:10101000843008F06BC08B81883008F067C08A810B
:10102000282F30E03D832C834C815D814130510578
:1010300041F18C819D818230910534F42C813D8178
:101040002115310561F052C04C815D81423051055E
:1010500051F18C819D8183309105B9F147C0E9E35D
:10106000F0E08081282F30E08B81882F90E0A9016B
:1010700002C0559547958A95E2F7CA018170898328
:1010800035C0E6E3F0E08081282F30E08B81882FA7
:1010900090E0A90102C0559547958A95E2F7CA01EB
:1010A0008170898323C0E3E3F0E08081282F30E062
:1010B0008B81882F90E0A90102C0559547958A95AC
:1010C000E2F7CA018170898311C0E0E3F0E080811A
:1010D000282F30E08B81882F90E0A90102C0559520
:1010E00047958A95E2F7CA018170898389810F90BB
:1010F0000F900F900F900F90CF91DF910895DF9395
:10110000CF9300D000D0CDB7DEB789836A838981C1
:10111000843090F58981282F30E03C832B838B81AC
:101120009C8181309105D1F02B813C8122303105A9
:101130002CF48B819C81009761F01EC02B813C8137
:101140002230310581F08B819C818330910581F0C3
:1011500013C0EAE3F0E08A8180830EC0E7E3F0E0A9
:101160008A81808309C0E4E3F0E08A81808304C03F
:10117000E1E3F0E08A8180830F900F900F900F9051
:10118000CF91DF910895DF93CF9300D000D0CDB7FA
:10119000DEB789836A838981843090F58981282F1D
:1011A00030E03C832B838B819C8181309105D1F091
:1011B0002B813C81223031052CF48B819C8100975E
:1011C00061F01EC02B813C812230310581F08B8182
:1011D0009C818330910581F013C0EBE3F0E08A81BC
:1011E00080830EC0E8E3F0E08A81808309C0E5E3F4
:1011F000F0E08A81808304C0E2E3F0E08A818083AA
:101200000F900F900F900F90CF91DF910895DF9383
:10121000CF9300D000D0CDB7DEB78A8319828A8100
:10122000843090F58A81282F30E03C832B838B819A
:101230009C8181309105D1F02B813C812230310598
:101240002CF48B819C81009761F01EC02B813C8126
:101250002230310581F08B819C818330910581F0B2
:1012600013C0E9E3F0E0808189830EC0E6E3F0E09B
:101270008081898309C0E3E3F0E08081898304C031
:10128000E0E3F0E08081898389810F900F900F90D7
:101290000F90CF91DF910895DF93CF93CDB7DEB755
:1012A0002E970FB6F894DEBF0FBECDBF82E06FEF72
:1012B0000E947F0883E060E041E00E94C00583E077
:1012C00061E041E00E94C00583E062E041E00E94ED
:1012D000C00580E090E0A0E2B2E48B879C87AD87F8
:1012E000BE876B857C858D859E8520E030E04AEF4A
:1012F00054E40E941702DC01CB018F839887A987F1
:10130000BA876F81788589859A8520E030E040E84A
:101310005FE30E94710388232CF481E090E09E83B8
:101320008D833FC06F81788589859A8520E03FEF66
:101330004FE757E40E94110318164CF56B857C8526
:101340008D859E8520E030E040E251E40E94170246
:10135000DC01CB01BC01CD010E944100DC01CB01CD
:101360009E838D830FC088EC90E09C838B838B8160
:101370009C810197F1F79C838B838D819E810197DE
:101380009E838D838D819E81009769F714C06F8144
:10139000788589859A850E944100DC01CB019E8376
:1013A0008D838D819E819A83898389819A8101971A
:1013B000F1F79A83898388E30E94190A8EE00E94DC
:1013C000190A81E00E94190A86E00E94190A82E047
:1013D0000E94190A2E960FB6F894DEBF0FBECDBF3D
:1013E000CF91DF910895DF93CF930F92CDB7DEB702
:1013F000898383E060E041E00E94DE0683E061E0F3
:1014000040E00E94DE0682E069810E94C30883E01A
:1014100062E041E00E94DE0683E062E040E00E947C
:10142000DE060E945D0B8823E1F70F90CF91DF91DC
:101430000895DF93CF930F92CDB7DEB7898383E012
:1014400060E040E00E94DE0683E061E040E00E9450
:10145000DE0682E069810E94C30883E062E041E029
:101460000E94DE0683E062E040E00E94DE060E9409
:101470005D0B8823E1F70F90CF91DF910895DF9303
:10148000CF9300D00F92CDB7DEB79B838A831982AA
:101490000EC08981282F30E08A819B81FC01E20FF8
:1014A000F31F80810E94F30989818F5F898389817D
:1014B000282F30E08A819B81FC01E20FF31F80819D
:1014C000882339F70F900F900F90CF91DF910895F7
:1014D000DF93CF9300D00F92CDB7DEB78A836B83B3
:1014E0008A81882F90E00024969587950794969599
:1014F00087950794982F802D982F8B81890F89834A
:10150000898180580E94190A0F900F900F90CF91F7
:10151000DF910895DF93CF93CDB7DEB727970FB64E
:10152000F894DEBF0FBECDBF9C838B836D834E834B
:101530002F838D81882F90E0880F991F880F991F26
:10154000880F991F89838981805C0E94190A1A82F9
:101550000EC08A81282F30E08B819C81FC01E20F34
:10156000F31F80810E94F3098A818F5F8A838A81B9
:10157000883078F38E816F810E94680A8D810E9485
:10158000F30927960FB6F894DEBF0FBECDBFCF91FB
:10159000DF910895DF93CF93CDB7DEB728970FB6CD
:1015A000F894DEBF0FBECDBF6D837E838F83988797
:1015B00081E090E0A0E0B0E089839A83AB83BC83B4
:1015C00012C089819A81AB81BC812AE030E040E081
:1015D00050E0BC01CD010E94B70DDC01CB01898335
:1015E0009A83AB83BC8389819A81AB81BC812AE0D9
:1015F00030E040E050E0BC01CD010E94B70D9B01FE
:10160000AC018D819E81AF81B885BC01CD010E9466
:10161000E20DDC01CB019C01AD018D819E81AF818A
:10162000B885281739074A075B0759F635C08D81F9
:101630009E81AF81B88529813A814B815C81BC0153
:10164000CD010E94E20DDA01C901805D0E94F3091B
:101650008D819E81AF81B88529813A814B815C81E2
:10166000BC01CD010E94E20DDC01CB018D839E8384
:10167000AF83B88789819A81AB81BC812AE030E051
:1016800040E050E0BC01CD010E94E20DDA01C90149
:1016900089839A83AB83BC8389819A81AB81BC8126
:1016A0000097A105B10519F628960FB6F894DEBF8C
:1016B0000FBECDBFCF91DF910895DF93CF930F92EF
:1016C000CDB7DEB781E0898383E060E040E00E942F
:1016D000DE0683E061E041E00E94DE0682E060E039
:1016E0000E947F0883E062E041E00E94DE0682E023
:1016F00067E00E94FC07898383E062E040E00E948B
:10170000DE0682E06FEF0E947F0889810F90CF9103
:10171000DF910895DF93CF930F92CDB7DEB7198293
:1017200083E060E040E00E94DE0683E061E041E0AB
:101730000E94DE0682E060E00E947F0883E062E0B3
:1017400041E00E94DE0682E00E9407098F778983CC
:1017500083E062E040E00E94DE0682E06FEF0E94DC
:101760007F0889810F90CF91DF910895DF93CF9308
:101770000F92CDB7DEB7198283E060E041E00E94AE
:10178000DE0683E061E041E00E94DE0682E060E088
:101790000E947F0883E062E041E00E94DE0682E072
:1017A0000E94070989830E945D0B8823E1F783E08B
:1017B00062E040E00E94DE0682E06FEF0E947F0858
:1017C00089810F90CF91DF910895DF93CF93CDB7AB
:1017D000DEB727970FB6F894DEBF0FBECDBF9C8350
:1017E0008B836D8383E08A8381E089830E94940CDC
:1017F0008A838A81282F30E03F832E838E819F81C8
:10180000009731F02E813F812130310589F01AC0D7
:101810008981282F30E08D81882F90E0019728174B
:10182000390711F419820EC089818F5F89830AC03C
:101830008981882321F48D818150898303C0898126
:10184000815089838981282F30E08B819C81FC0124
:10185000E20FF31F80810E94F30980E10E94190AC0
:101860008A81823019F68981282F30E08B819C8112
:10187000FC01E20FF31F8081805327960FB6F89486
:10188000DEBF0FBECDBFCF91DF910895DF93CF9321
:1018900000D000D000D0CDB7DEB79C838B8383E02F
:1018A0008A8319820E94940C8A838A81282F30E0CF
:1018B0003E832D838D819E81009731F02D813E8165
:1018C0002130310529F007C089818F5F898303C0EA
:1018D0008981815089838981882F90E09C012370C0
:1018E00030708B819C81FC01E20FF31F80810E948C
:1018F000F30980E10E94190A8A81823099F6898170
:10190000882F90E09C01237030708B819C81FC01BA
:10191000E20FF31F808126960FB6F894DEBF0FBE4C
:10192000CDBFCF91DF910895DF93CF9300D0CDB796
:10193000DEB781E08A8325C0198220C08981882F83
:1019400090E0FC01E859FF4F908180E0692F0E94F0
:10195000FC078A838A81882371F48981882F90E02B
:10196000FC01E859FF4F908180E0692F0E94FC073D
:10197000882399F306C089818F5F898389818330A9
:10198000E8F28A818130C1F28981882F90E0FC01E0
:10199000E859FF4F80810F900F90CF91DF9108950C
:1019A000DF93CF930F92CDB7DEB719821BC0898129
:1019B000882F90E0FC01E859FF4F908180E0692F6B
:1019C00040E00E94C0058981882F90E0FC01E85921
:1019D000FF4F908180E0692F41E00E94DE068981FF
:1019E0008F5F89838981833010F30E944C0981E3E2
:1019F0000E94F3098BE20E94F30981E30E94F3093C
:101A00000F90CF91DF910895EF92FF920F931F9364
:101A1000DF93CF9300D000D00F92CDB7DEB781E037
:101A20008B8381E08A838BE289830E94D00C80E0E3
:101A300060E00E94680A8BE690E06AE00E94E50B95
:101A40008B8380E061E00E94680A85E790E00E9455
:101A5000460C898380E062E00E94680A89818F32A7
:101A600039F48CE690E069E00E94E50B8A8306C0B9
:101A70008BE690E06AE00E94E50B8A8380E063E0F9
:101A80000E94680A8DE30E94F3098981E82EFF24F1
:101A9000FD82EC820C811D810B321105B9F02C8185
:101AA0003D812C32310534F48C819D818A3291053F
:101AB000B9F158C00C811D810D321105D1F02C8176
:101AC0003D812F32310509F440C04CC08B81282F55
:101AD00030E040E050E08A81882F90E0A0E0B0E064
:101AE000820F931FA41FB51FBC01CD010E94CA0A1B
:101AF00039C08B81282F30E040E050E08A81882F68
:101B000090E0A0E0B0E079018A01E81AF90A0A0B36
:101B10001B0BD801C701BC01CD010E94CA0A22C01B
:101B20008B81882F90E0A0E0B0E02A81222F30E066
:101B300040E050E0BC01CD010E94B70DDC01CB01BB
:101B4000BC01CD010E94CA0A0DC08B819A81692F08
:101B50000E94D60D882F90E0A0E0B0E0BC01CD013E
:101B60000E94CA0A0E94940C8230E1F75ECF629F05
:101B7000D001739FF001829FE00DF11D649FE00D85
:101B8000F11D929FF00D839FF00D749FF00D659FE6
:101B9000F00D9927729FB00DE11DF91F639FB00DE5
:101BA000E11DF91FBD01CF0111240895991B79E0B2
:101BB00004C0991F961708F0961B881F7A95C9F7DD
:101BC00080950895A1E21A2EAA1BBB1BFD010DC032
:101BD000AA1FBB1FEE1FFF1FA217B307E407F507DD
:101BE00020F0A21BB30BE40BF50B661F771F881FB9
:101BF000991F1A9469F760957095809590959B014F
:101C0000AC01BD01CF0108952F923F924F925F9298
:101C10006F927F928F929F92AF92BF92CF92DF92FC
:101C2000EF92FF920F931F93CF93DF93CDB7DEB761
:101C3000CA1BDB0B0FB6F894DEBF0FBECDBF0994F5
:101C40002A88398848885F846E847D848C849B844C
:101C5000AA84B984C884DF80EE80FD800C811B815A
:101C6000AA81B981CE0FD11D0FB6F894DEBF0FBE89
:0A1C7000CDBFED010895F894FFCFF9
:101C7A00000000000000000000010230313233345D
:0A1C8A0035363738392B2D2A2F008C
:00000001FF
