:100000000C942A000C9447000C9447000C94470071
:100010000C9447000C9447000C9447000C94470044
:100020000C9447000C9447000C9447000C94470034
:100030000C9447000C9447000C9447000C94470024
:100040000C9447000C9447000C9447000C94470014
:100050000C94470011241FBECFE5D8E0DEBFCDBF12
:1000600010E0A0E6B0E0E0EBF1E202C005900D92F6
:10007000A63AB107D9F710E0A6EAB0E001C01D9298
:10008000A73AB107E1F70E94380D0C94D6100C94F2
:100090000000EF92FF920F931F937B018C0120E0F1
:1000A00030E040E05FE40E94490388238CF0C801FF
:1000B000B70120E030E040E05FE40E94C1010E940F
:1000C000A9039B01AC01205030404040504806C07D
:1000D000C801B7010E94A9039B01AC01B901CA0183
:1000E0001F910F91FF90EF900895A0E0B0E0EBE733
:1000F000F0E00C949F10DC012B01FA019C919230EE
:1001000008F439C1EB018881823008F433C194309E
:1001100069F4843009F02FC111969C91119789815F
:10012000981709F428C1A5E7B0E025C1843009F487
:1001300021C18230A9F4923009F01DC19A01AD01AC
:1001400088E0EA010990AE01E90109929E0181501F
:10015000C1F7E201898111969C918923818308C1AD
:10016000923009F407C112962D903C901397EB0141
:100170008A819B811496AD90BD90CD90DC901797AD
:10018000EC80FD800E811F819101281B390BB90184
:1001900037FF04C066277727621B730B6032710537
:1001A0000CF061C0121613066CF537014801062EDB
:1001B00004C096948794779467940A94D2F721E0C8
:1001C00030E040E050E004C0220F331F441F551FB1
:1001D0006A95D2F721503040404050402E213F21B7
:1001E00040235123211531054105510521F021E01E
:1001F00030E040E050E079018A01E628F72808293C
:1002000019293CC0232BD1F1260E371E350146019A
:10021000062E04C096948794779467940A94D2F734
:1002200021E030E040E050E004C0220F331F441FC3
:10023000551F6A95D2F721503040404050402A2146
:100240003B214C215D21211531054105510521F04E
:1002500021E030E040E050E059016A01A628B728CB
:10026000C828D9280BC0821593052CF01C01AA249C
:10027000BB24650103C0EE24FF24870111969C91E5
:10028000D20111968C91981709F445C0992339F041
:10029000A80197012A193B094C095D0906C0A6016E
:1002A00095012E193F09400B510B57FD08C01182D3
:1002B0003382228224833583468357831DC081E0A5
:1002C00081833382228288279927DC01821B930B4A
:1002D000A40BB50B84839583A683B7830DC0220F2F
:1002E000331F441F551F24833583468357838281E0
:1002F000938101979383828324813581468157813D
:10030000DA01C9010197A109B1098F5F9F4FAF4F72
:10031000BF4328F30BC0918333822282EA0CFB1C7B
:100320000C1D1D1DE482F5820683178383E0808304
:10033000248135814681578157FF1AC0C901AA27F8
:1003400097FDA095BA2F81709070A070B0705695EF
:10035000479537952795822B932BA42BB52B848318
:100360009583A683B7838281938101969383828349
:10037000DF0101C0D201CD01CDB7DEB7E2E10C94BF
:10038000BB10A0E2B0E0E7ECF1E00C94AB106983A5
:100390007A838B839C832D833E834F835887E9E048
:1003A000EE2EF12CEC0EFD1ECE010196B7010E943F
:1003B000D2048E010F5E1F4FCE010596B8010E9438
:1003C000D2048A8991E089278A8BC701B801AE01DE
:1003D000475E5F4F0E9475000E94FD03A096E6E015
:1003E0000C94C710A0E2B0E0E8EFF1E00C94AB1081
:1003F00069837A838B839C832D833E834F835887C5
:10040000F9E0EF2EF12CEC0EFD1ECE010196B701A6
:100410000E94D2048E010F5E1F4FCE010596B801D7
:100420000E94D204C701B801AE01475E5F4F0E942F
:1004300075000E94FD03A096E6E00C94C710A0E2B0
:10044000B0E0E5E2F2E00C949F1069837A838B833D
:100450009C832D833E834F835887CE010196BE0136
:10046000675F7F4F0E94D204CE010596BE016F5E8A
:100470007F4F0E94D2049985923088F0898982301A
:10048000C8F0943019F4823051F404C0843029F457
:10049000923081F485E790E0C6C0923049F420E0C4
:1004A0009A858A89981321E02A87CE010996BBC0D4
:1004B000823049F420E09A858A89981321E02A8BBA
:1004C000CE014196B0C02D843E844F8458886D88FB
:1004D0007E888F88988CEE24FF248701AA24BB2471
:1004E000650140E050E060E070E0E0E0F0E0C10174
:1004F00081709070892BE9F0E60CF71C081D191D1E
:100500009A01AB012A0D3B1D4C1D5D1D80E090E062
:10051000A0E0B0E0E614F7040805190520F481E036
:1005200090E0A0E0B0E0BA01A901480F591F6A1F8E
:100530007B1FAA0CBB1CCC1CDD1C97FE08C081E0F5
:1005400090E0A0E0B0E0A82AB92ACA2ADB2A3196B6
:10055000E032F10549F0660C771C881C991C569412
:10056000479437942794C3CFFA85EA892B893C892D
:100570008B859C85280F391F2E5F3F4F17C0CA01FE
:1005800081709070892B61F016950795F794E79428
:1005900080E090E0A0E0B0E8E82AF92A0A2B1B2BC3
:1005A00076956795579547952F5F3F4F77FDE7CF36
:1005B0000CC0440F551F661F771F17FD4160EE0CDE
:1005C000FF1C001F111F21503040403090E05907A0
:1005D00090E0690790E4790760F32B8F3C8FDB0193
:1005E000CA018F779070A070B07080349105A1051A
:1005F000B10561F447FD0AC0E114F10401051105DC
:1006000029F0405C5F4F6F4F7F4F40781A8EFE1786
:1006100011F081E08A8F4D8F5E8F6F8F78A383E01A
:10062000898FCE0149960E94FD03A096E2E10C94C9
:10063000BB10A8E1B0E0EFE1F3E00C94AB106983EC
:100640007A838B839C832D833E834F83588789E0F5
:10065000E82EF12CEC0EFD1ECE010196B7010E9492
:10066000D2048E010F5E1F4FCE010596B8010E9485
:10067000D2048985823040F08989823028F0C70110
:10068000B8010E944A0501C08FEF6896E6E00C941D
:10069000C710A8E1B0E0EFE4F3E00C94AB1069837D
:1006A0007A838B839C832D833E834F83588789E095
:1006B000E82EF12CEC0EFD1ECE010196B7010E9432
:1006C000D2048E010F5E1F4FCE010596B8010E9425
:1006D000D2048985823040F08989823028F0C701B0
:1006E000B8010E944A0501C08FEF6896E6E00C94BD
:1006F000C710A8E1B0E0EFE7F3E00C94AB1069831A
:100700007A838B839C832D833E834F83588789E034
:10071000E82EF12CEC0EFD1ECE010196B7010E94D1
:10072000D2048E010F5E1F4FCE010596B8010E94C4
:10073000D2048985823040F08989823028F0C7014F
:10074000B8010E944A0501C081E06896E6E00C9479
:10075000C710ACE0B0E0EFEAF3E00C94AF106983AF
:100760007A838B839C83CE010196BE016B5F7F4FA2
:100770000E94D2048D81823061F1823050F1843048
:1007800021F48E81882351F12EC02F81388537FDC9
:1007900020C06E812F3131051CF06623F9F023C093
:1007A0008EE190E0821B930B29853A854B855C8511
:1007B00004C056954795379527958A95D2F76623B5
:1007C000B1F050954095309521953F4F4F4F5F4F79
:1007D0000EC020E030E040E050E009C02FEF3FEFD6
:1007E0004FEF5FE704C020E030E040E050E8B9019F
:1007F000CA012C96E2E00C94CB10DF92EF92FF92AC
:100800000F931F93FC01E480F58006811781D1804E
:100810008081823048F480E090E0A0E1B0E0E82AF6
:10082000F92A0A2B1B2BA5C0843009F49FC0823003
:1008300021F4EE24FF24870105C0E114F104010531
:10084000110519F4E0E0F0E096C0628173819FEF3A
:10085000623879070CF05BC022E83FEF261B370BAC
:100860002A3131052CF020E030E040E050E02AC091
:10087000B801A701022E04C0769567955795479554
:100880000A94D2F781E090E0A0E0B0E004C0880FC5
:10089000991FAA1FBB1F2A95D2F70197A109B10979
:1008A0008E219F21A023B1230097A105B10521F03E
:1008B00081E090E0A0E0B0E09A01AB01282B392B59
:1008C0004A2B5B2BDA01C9018F779070A070B07052
:1008D00080349105A105B10539F427FF09C0205CDA
:1008E0003F4F4F4F5F4F04C0215C3F4F4F4F5F4F13
:1008F000E0E0F0E02030A0E03A07A0E04A07A0E402
:100900005A0710F0E1E0F0E079018A0127C0603871
:10091000710564F5FB01E158FF4FD801C7018F77DE
:100920009070A070B07080349105A105B10539F4C4
:10093000E7FE0DC080E490E0A0E0B0E004C08FE3EB
:1009400090E0A0E0B0E0E80EF91E0A1F1B1F17FFA1
:1009500005C016950795F794E794319687E01695AC
:100960000795F794E7948A95D1F705C0EE24FF2404
:100970008701EFEFF0E06E2F679566276795902F60
:100980009F77D794DD24D7948E2F8695492F462BB9
:10099000582F5D29B701CA011F910F91FF90EF9069
:1009A000DF900895FC01DB01408151812281622F9B
:1009B0006F7770E0221F2227221F9381892F880FD3
:1009C000822B282F30E0991F9927991F11969C930D
:1009D000119721153105A9F54115510561057105DD
:1009E00011F482E037C082E89FEF13969C938E93B8
:1009F00012979A01AB0167E0220F331F441F551F66
:100A00006A95D1F783E08C930DC0220F331F441FEA
:100A1000551F12968D919C911397019713969C9355
:100A20008E931297203080E0380780E0480780E4FA
:100A3000580758F314962D933D934D935C93179755
:100A400008952F3F310579F4411551056105710570
:100A500019F484E08C93089564FF03C081E08C93C3
:100A600012C01C9210C02F57304013963C932E9307
:100A7000129783E08C9387E0440F551F661F771F02
:100A80008A95D1F7706414964D935D936D937C9322
:100A9000179708951F93DC01FB019C91923008F495
:100AA00047C08081823008F443C0943051F41196DD
:100AB0001C91843099F58181682F70E0611B710968
:100AC0003FC0843021F0923031F48230B9F181811D
:100AD000882389F12DC011961C9111978230F1F075
:100AE00081811817D9F412962D913C911397828128
:100AF00093818217930794F028173907BCF0149656
:100B00008D919D910D90BC91A02D248135814681C0
:100B10005781281739074A075B0718F4112341F05A
:100B20000AC082179307A407B50740F4112319F0F0
:100B300061E070E005C06FEF7FEF02C060E070E041
:100B4000CB011F910895DF93CF93CDB7DEB7EAE3D2
:100B5000F0E08FE08083E7E3F0E08FEF8083E4E371
:100B6000F0E08FE08083E1E3F0E08FE08083EBE36F
:100B7000F0E08FEF8083E8E3F0E01082E5E3F0E05F
:100B80008FEF8083E2E3F0E08FEF8083CF91DF91FE
:100B90000895DF93CF93CDB7DEB72D970FB6F894B6
:100BA000DEBF0FBECDBF89836A834B8389818430CA
:100BB00008F004C18A81883008F000C18981282F9B
:100BC00030E03D872C878C859D858130910509F427
:100BD0004FC02C853D85223031052CF48C859D85B8
:100BE000009771F0EBC02C853D852230310509F46A
:100BF00077C08C859D858330910509F4A9C0DEC03E
:100C00008B81282F30E03B872A878A859B85009738
:100C1000D1F02A853B852130310509F0CFC0AAE308
:100C2000B0E0EAE3F0E08081482F8A81282F30E0AD
:100C300081E090E0022E02C0880F991F0A94E2F72B
:100C4000842B8C93BBC0AAE3B0E0EAE3F0E08081A0
:100C5000482F8A81282F30E081E090E0022E02C0E8
:100C6000880F991F0A94E2F7809584238C93A6C07D
:100C70008B81282F30E039872887888599850097D0
:100C8000D1F0288539852130310509F097C0A7E3D7
:100C9000B0E0E7E3F0E08081482F8A81282F30E040
:100CA00081E090E0022E02C0880F991F0A94E2F7BB
:100CB000842B8C9383C0A7E3B0E0E7E3F0E080816E
:100CC000482F8A81282F30E081E090E0022E02C078
:100CD000880F991F0A94E2F7809584238C936EC045
:100CE0008B81282F30E03F832E838E819F81009758
:100CF000D1F02E813F812130310509F05FC0A4E39E
:100D0000B0E0E4E3F0E08081482F8A81282F30E0D2
:100D100081E090E0022E02C0880F991F0A94E2F74A
:100D2000842B8C934BC0A4E3B0E0E4E3F0E080813B
:100D3000482F8A81282F30E081E090E0022E02C007
:100D4000880F991F0A94E2F7809584238C9336C00C
:100D50008B81282F30E03D832C838C819D810097EF
:100D6000C9F02C813D812130310541F5A1E3B0E08E
:100D7000E1E3F0E08081482F8A81282F30E081E094
:100D800090E0022E02C0880F991F0A94E2F7842B8C
:100D90008C9314C0A1E3B0E0E1E3F0E08081482F40
:100DA0008A81282F30E081E090E0022E02C0880F77
:100DB000991F0A94E2F7809584238C932D960FB6A1
:100DC000F894DEBF0FBECDBFCF91DF910895DF93C2
:100DD000CF93CDB7DEB72D970FB6F894DEBF0FBE19
:100DE000CDBF89836A834B838981843008F004C135
:100DF0008A81883008F000C18981282F30E03D8742
:100E00002C878C859D858130910509F44FC02C85F8
:100E10003D85223031052CF48C859D85009771F03D
:100E2000EBC02C853D852230310509F477C08C85D7
:100E30009D858330910509F4A9C0DEC08B81282FE0
:100E400030E03B872A878A859B850097D1F02A85E9
:100E50003B852130310509F0CFC0ABE3B0E0EBE3D7
:100E6000F0E08081482F8A81282F30E081E090E0F7
:100E7000022E02C0880F991F0A94E2F7842B8C93EC
:100E8000BBC0ABE3B0E0EBE3F0E08081482F8A81A8
:100E9000282F30E081E090E0022E02C0880F991FD9
:100EA0000A94E2F7809584238C93A6C08B81282F27
:100EB00030E039872887888599850097D1F0288583
:100EC00039852130310509F097C0A8E3B0E0E8E3A7
:100ED000F0E08081482F8A81282F30E081E090E087
:100EE000022E02C0880F991F0A94E2F7842B8C937C
:100EF00083C0A8E3B0E0E8E3F0E08081482F8A8176
:100F0000282F30E081E090E0022E02C0880F991F68
:100F10000A94E2F7809584238C936EC08B81282FEE
:100F200030E03F832E838E819F810097D1F02E8108
:100F30003F812130310509F05FC0A5E3B0E0E5E372
:100F4000F0E08081482F8A81282F30E081E090E016
:100F5000022E02C0880F991F0A94E2F7842B8C930B
:100F60004BC0A5E3B0E0E5E3F0E08081482F8A8143
:100F7000282F30E081E090E0022E02C0880F991FF8
:100F80000A94E2F7809584238C9336C08B81282FB6
:100F900030E03D832C838C819D810097C9F02C81AA
:100FA0003D812130310541F5A2E3B0E0E2E3F0E01C
:100FB0008081482F8A81282F30E081E090E0022E46
:100FC00002C0880F991F0A94E2F7842B8C9314C0F7
:100FD000A2E3B0E0E2E3F0E08081482F8A81282F8D
:100FE00030E081E090E0022E02C0880F991F0A9441
:100FF000E2F7809584238C932D960FB6F894DEBF8C
:101000000FBECDBFCF91DF910895DF93CF9300D076
:1010100000D00F92CDB7DEB78A836B8382E08983DD
:101020008A81843008F06BC08B81883008F067C0FB
:101030008A81282F30E03D832C834C815D814130B3
:10104000510541F18C819D818230910534F42C81D0
:101050003D812115310561F052C04C815D814230E6
:10106000510551F18C819D8183309105B9F147C0C3
:10107000E9E3F0E08081282F30E08B81882F90E039
:10108000A90102C0559547958A95E2F7CA0181707A
:10109000898335C0E6E3F0E08081282F30E08B8142
:1010A000882F90E0A90102C0559547958A95E2F7EF
:1010B000CA018170898323C0E3E3F0E08081282F97
:1010C00030E08B81882F90E0A90102C055954795AB
:1010D0008A95E2F7CA018170898311C0E0E3F0E0EC
:1010E0008081282F30E08B81882F90E0A90102C0F9
:1010F000559547958A95E2F7CA0181708983898160
:101100000F900F900F900F900F90CF91DF91089557
:10111000DF93CF9300D000D0CDB7DEB789836A8349
:101120008981843090F58981282F30E03C832B839E
:101130008B819C8181309105D1F02B813C812230C3
:1011400031052CF48B819C81009761F01EC02B81AE
:101150003C812230310581F08B819C818330910567
:1011600081F013C0EAE3F0E08A8180830EC0E7E3F8
:10117000F0E08A81808309C0E4E3F0E08A81808323
:1011800004C0E1E3F0E08A8180830F900F900F901C
:101190000F90CF91DF910895DF93CF9300D000D0CF
:1011A000CDB7DEB789836A838981843090F58981E0
:1011B000282F30E03C832B838B819C8181309105EB
:1011C000D1F02B813C81223031052CF48B819C8124
:1011D000009761F01EC02B813C812230310581F0E7
:1011E0008B819C818330910581F013C0EBE3F0E0AB
:1011F0008A8180830EC0E8E3F0E08A81808309C0A1
:10120000E5E3F0E08A81808304C0E2E3F0E08A81D4
:1012100080830F900F900F900F90CF91DF910895E2
:10122000DF93CF9300D000D0CDB7DEB78A83198289
:101230008A81843090F58A81282F30E03C832B838B
:101240008B819C8181309105D1F02B813C812230B2
:1012500031052CF48B819C81009761F01EC02B819D
:101260003C812230310581F08B819C818330910556
:1012700081F013C0E9E3F0E0808189830EC0E6E3EA
:10128000F0E08081898309C0E3E3F0E08081898315
:1012900004C0E0E3F0E08081898389810F900F90A2
:1012A0000F900F90CF91DF910895DF93CF9300D0EF
:1012B00000D00F92CDB7DEB780E28C831A8257C080
:1012C0008A81882F90E0FC01EF57FF4F908180E0EA
:1012D000692F40E00E94E706198237C08981882F74
:1012E00090E0FC01E358FF4F908180E0692F0E945D
:1012F00005088B838B81882329F58981482F50E04D
:101300008A81282F30E0CA01880F991F880F991F02
:10131000820F931FFC01EB57FF4F80818C830CC021
:101320008981882F90E0FC01E358FF4F908180E095
:10133000692F0E9405088B838B81882389F38C8118
:101340008D831BC089818F5F89838981843030F2CE
:101350008A81882F90E0FC01EF57FF4F908180E059
:10136000692F41E00E94E7068A818F5F8A838A8124
:10137000843008F4A5CF8C818D838D810F900F90E0
:101380000F900F900F90CF91DF910895DF93CF933F
:10139000CDB7DEB72E970FB6F894DEBF0FBECDBF28
:1013A00082E06FEF0E94880883E060E041E00E94E5
:1013B000C90583E061E041E00E94C90583E062E085
:1013C00041E00E94C90580E090E0A0E2B2E48B8792
:1013D0009C87AD87BE876B857C858D859E8520E04B
:1013E00030E04AEF54E40E941F02DC01CB018F83FE
:1013F0009887A987BA876F81788589859A8520E043
:1014000030E040E85FE30E94790388232CF481E018
:1014100090E09E838D833FC06F81788589859A8512
:1014200020E03FEF4FE757E40E94190318164CF5F0
:101430006B857C858D859E8520E030E040E251E41F
:101440000E941F02DC01CB01BC01CD010E944900BA
:10145000DC01CB019E838D830FC088EC90E09C83E0
:101460008B838B819C810197F1F79C838B838D818A
:101470009E8101979E838D838D819E81009769F760
:1014800014C06F81788589859A850E944900DC01A6
:10149000CB019E838D838D819E819A8389838981EF
:1014A0009A810197F1F79A83898388E30E94930ACE
:1014B0008EE00E94930A81E00E94930A86E00E94D7
:1014C000930A82E00E94930A2E960FB6F894DEBF2C
:1014D0000FBECDBFCF91DF910895DF93CF930F92D1
:1014E000CDB7DEB7898383E060E041E00E94E70684
:1014F00083E061E040E00E94E70682E069810E94AB
:10150000CC0883E062E041E00E94E70683E062E00D
:1015100040E00E94E7060E94D70B8823E1F70F9076
:10152000CF91DF910895DF93CF930F92CDB7DEB7C0
:10153000898383E060E040E00E94E70683E061E0A9
:1015400040E00E94E70682E069810E94CC0883E0C7
:1015500062E041E00E94E70683E062E040E00E9432
:10156000E7060E94D70B8823E1F70F90CF91DF9118
:101570000895DF93CF9300D00F92CDB7DEB79B8352
:101580008A8319820EC08981282F30E08A819B814D
:10159000FC01E20FF31F80810E946D0A89818F5F39
:1015A00089838981282F30E08A819B81FC01E20FA9
:1015B000F31F8081882339F70F900F900F90CF9100
:1015C000DF910895DF93CF9300D00F92CDB7DEB7B0
:1015D0008A836B838A81882F90E000249695879573
:1015E0000794969587950794982F802D982F8B8137
:1015F000890F8983898180580E94930A0F900F90E8
:101600000F90CF91DF910895DF93CF93CDB7DEB7E1
:1016100027970FB6F894DEBF0FBECDBF9C838B8398
:101620006D834E832F838D81882F90E0880F991FC3
:10163000880F991F880F991F89838981805C0E9478
:10164000930A1A820EC08A81282F30E08B819C81F8
:10165000FC01E20FF31F80810E946D0A8A818F5F77
:101660008A838A81883078F38E816F810E94E20AB2
:101670008D810E946D0A27960FB6F894DEBF0FBECB
:10168000CDBFCF91DF910895DF93CF93CDB7DEB774
:1016900028970FB6F894DEBF0FBECDBF6D837E8353
:1016A0008F83988781E090E0A0E0B0E089839A83FF
:1016B000AB83BC8312C089819A81AB81BC812AE053
:1016C00030E040E050E0BC01CD010E945210DC014E
:1016D000CB0189839A83AB83BC8389819A81AB8157
:1016E000BC812AE030E040E050E0BC01CD010E9426
:1016F00052109B01AC018D819E81AF81B885BC01E8
:10170000CD010E947D10DC01CB019C01AD018D81DA
:101710009E81AF81B885281739074A075B0759F6BC
:1017200035C08D819E81AF81B88529813A814B81F9
:101730005C81BC01CD010E947D10DA01C901805D90
:101740000E946D0A8D819E81AF81B88529813A8181
:101750004B815C81BC01CD010E947D10DC01CB017D
:101760008D839E83AF83B88789819A81AB81BC8149
:101770002AE030E040E050E0BC01CD010E947D1045
:10178000DA01C90189839A83AB83BC8389819A81F9
:10179000AB81BC810097A105B10519F628960FB65B
:1017A000F894DEBF0FBECDBFCF91DF910895DF93D8
:1017B000CF930F92CDB7DEB781E0898383E060E0FD
:1017C00040E00E94E70683E061E041E00E94E70616
:1017D00082E060E00E94880883E062E041E00E94CD
:1017E000E70682E067E00E940508898383E062E003
:1017F00040E00E94E70682E06FEF0E94880889813E
:101800000F90CF91DF910895DF93CF930F92CDB7D3
:10181000DEB7198283E060E040E00E94E70683E0E3
:1018200061E041E00E94E70682E060E00E948808F3
:1018300083E062E041E00E94E70682E00E94100936
:101840008F77898383E062E040E00E94E70682E0D0
:101850006FEF0E94880889810F90CF91DF910895E2
:10186000DF93CF930F92CDB7DEB7198283E060E0AC
:1018700041E00E94E70683E061E041E00E94E70664
:1018800082E060E00E94880883E062E041E00E941C
:10189000E70682E00E941009898383E062E040E06D
:1018A0000E94E70682E06FEF0E94880889810F900E
:1018B000CF91DF910895DF93CF93CDB7DEB70E942C
:1018C000A3050E94C60980E690E00E94B90ACF9164
:1018D000DF910895DF93CF9300D0CDB7DEB71A82A2
:1018E00080E289838091A600282F30E0C901880F0B
:1018F000991F820F931F982F80E0692F0E94E20AA0
:101900000E94550989838981803350F089818A3307
:1019100038F489810E946D0A80E10E94930A2BC0ED
:101920008981823581F48091A600282F30E0C90199
:10193000880F991F820F931F982F9F5F80E0692F58
:101940000E94E20A18C089818C3479F48091A60043
:10195000282F30E0C901880F991F820F931F982FFD
:1019600080E0692F0E94E20A06C08981833519F45C
:1019700081E08A8303C08981853411F68091A600B5
:10198000823030F48091A6008F5F8093A60002C061
:101990001092A6008A810F900F90CF91DF91089549
:1019A000DF93CF9300D0CDB7DEB78A8319828A81C7
:1019B000282F30E0C901880F991F820F931F982F9D
:1019C00080E0692F0E94E20A0E94300C898389819D
:1019D000805389838981882F90E09C01220F331FD7
:1019E000C901880F991F880F991F820F931F898340
:1019F0008A81282F30E0C901880F991F820F931F19
:101A0000982F9F5F80E0692F0E94E20A0E94300CAD
:101A1000982F8981890F8053898389810F900F9036
:101A2000CF91DF910895DF93CF930F92CDB7DEB7BB
:101A3000898389819AE0692F0E947110882F90E034
:101A4000A0E0B0E0BC01CD010E94440B89819AE086
:101A5000692F0E947110892F882F90E0A0E0B0E0DC
:101A6000BC01CD010E94440B0F90CF91DF910895EE
:101A70000F931F93DF93CF93CDB7DEB7CD54D040F4
:101A80000FB6F894DEBF0FBECDBF1DAA83E0FE01E6
:101A9000F696DF01282F1D922A95E9F7CE01C99607
:101AA0002B969FAF8EAF2B97A5E9B0E02D96BFAFD9
:101AB000AEAF2D97B0E12E96BFAF2E972D96EEAD1F
:101AC000FFAD2D9700802D968EAD9FAD2D97019681
:101AD0002D969FAF8EAF2D972B96AEADBFAD2B97AA
:101AE0000C922B96EEADFFAD2B9731962B96FFAF58
:101AF000EEAF2B972E96FFAD2E97F1502E96FFAF9F
:101B00002E972E962FAD2E972223C1F60E945B0CA6
:101B10000E945B0C0E946A0C8DAB8DA98823D1F3C7
:101B20001BAA10C08BA9082F10E08BA90E94D00C13
:101B3000282FCE01C696FC01E00FF11F20838BA950
:101B40008F5F8BAB8BA9833068F382E08AAB42C096
:101B50008AA9882F90E0AC01415050408AA9882F73
:101B600090E09C0121503040CE01C696FC01E20F6E
:101B7000F31FA0818AA9282F30E0CE01C696FC0170
:101B8000E20FF31F80819CE3692F0E9471102A2FBE
:101B9000280FCE01C696FC01E40FF51F20838AA909
:101BA000482F50E08AA9282F30E0CE01C696FC01CC
:101BB000E20FF31F80819CE3692F0E947110892F2F
:101BC000282FCE01C696FC01E40FF51F20838AA9B9
:101BD00081508AAB8AA9882309F0BACF19AA1BC001
:101BE00089A9282F30E0C901880F991F820F931F00
:101BF000982F80E0692F0E94E20A89A9282F30E0FF
:101C0000CE01C696FC01E20FF31F80810E94130DE6
:101C100089A98F5F89AB89A9833010F38CE00E947A
:101C2000930A18AAAAC080E060E00E94E20A8EA986
:101C300098A9891B0E94130D1FA695C080E063E040
:101C40000E94E20A8FA99FA5891B0E94130D1EA660
:101C500080C080E066E00E94E20A98AD8EA5A92FC0
:101C6000A81B8A2F0E94130D80E090E0AAE7B4E43D
:101C70008FA398A7A9A7BAA76FA178A589A59AA5A8
:101C800020E030E04AEF54E40E941F02DC01CB0167
:101C90008BA39CA3ADA3BEA36BA17CA18DA19EA190
:101CA00020E030E040E85FE30E94790388232CF4D1
:101CB00081E090E09AA389A33FC06BA17CA18DA194
:101CC0009EA120E03FEF4FE757E40E94190318164A
:101CD0004CF56FA178A589A59AA520E030E040E2F7
:101CE00051E40E941F02DC01CB01BC01CD010E9426
:101CF0004900DC01CB019AA389A30FC088EC90E0D6
:101D000098A38F8F8F8D98A10197F1F798A38F8F4C
:101D100089A19AA101979AA389A389A19AA1009761
:101D200069F714C06BA17CA18DA19EA10E944900FE
:101D3000DC01CB019AA389A389A19AA19E8F8D8FE3
:101D40008D8D9E8D0197F1F79E8F8D8F8EA58F5F64
:101D50008EA798AD8EA5981708F07BCF8BE388AF40
:101D60008FA58F5F8FA79FA98FA5981708F066CFC3
:101D70008BE38FAB88A98F5F88AB9EA988A9981742
:101D800008F051CFCE01C99660E041E029E10E9400
:101D9000040BCE01C99660E041E028E10E94040BEB
:101DA000CE01C99660E041E027E10E94040BCE011C
:101DB000C99660E041E026E10E94040BCE01C9967D
:101DC00060E041E025E10E94040B80E063E10E94B5
:101DD000E20A89E690E00E94B90A1DA678C088E16F
:101DE0000E94930A80E090E0A8ECB2E4898F9A8F79
:101DF000AB8FBC8F698D7A8D8B8D9C8D20E030E010
:101E00004AEF54E40E941F02DC01CB018D8B9E8BB4
:101E1000AF8BB88F6D897E898F89988D20E030E0F7
:101E200040E85FE30E94790388232CF481E090E08E
:101E30009C8B8B8B3FC06D897E898F89988D20E02C
:101E40003FEF4FE757E40E94190318164CF5698DD0
:101E50007A8D8B8D9C8D20E030E040E251E40E9431
:101E60001F02DC01CB01BC01CD010E944900DC0155
:101E7000CB019C8B8B8B0FC088EC90E09A8B898B6D
:101E800089899A890197F1F79A8B898B8B899C892B
:101E900001979C8B8B8B8B899C89009769F714C069
:101EA0006D897E898F89988D0E944900DC01CB0164
:101EB0009C8B8B8B8B899C89988B8F878F8598893E
:101EC0000197F1F7988B8F878DA58F5F8DA78DA5D3
:101ED000803108F484CF0E9455098CAB1CA6DDC06C
:101EE0001BA6D4C09E01275C3F4F8BA5882F90E096
:101EF000880F991F880F991F880F991F820F931FB2
:101F00006BA541E029E10E94040B9E01275C3F4F35
:101F10008BA5882F90E0880F991F880F991F880F35
:101F2000991F820F931F6BA541E028E10E94040BCB
:101F30009E01275C3F4F8BA5882F90E0880F991F4B
:101F4000880F991F880F991F820F931F6BA541E07F
:101F500027E10E94040B9E01275C3F4F8BA5882F31
:101F600090E0880F991F880F991F880F991F820F83
:101F7000931F6BA541E026E10E94040B9E01275CA4
:101F80003F4F8BA5882F90E0880F991F880F991FCE
:101F9000880F991F820F931F6BA541E025E10E94D6
:101FA000040B80E090E0A8ECB2E48B879C87AD87BF
:101FB000BE876B857C858D859E8520E030E04AEF6D
:101FC00054E40E941F02DC01CB018F839887A9870C
:101FD000BA876F81788589859A8520E030E040E86E
:101FE0005FE30E94790388232CF481E090E09E83D4
:101FF0008D833FC06F81788589859A8520E03FEF8A
:102000004FE757E40E94190318164CF56B857C8541
:102010008D859E8520E030E040E251E40E941F0261
:10202000DC01CB01BC01CD010E944900DC01CB01E8
:102030009E838D830FC088EC90E09C838B838B8183
:102040009C810197F1F79C838B838D819E81019701
:102050009E838D838D819E81009769F714C06F8167
:10206000788589859A850E944900DC01CB019E8391
:102070008D838D819E819A83898389819A8101973D
:10208000F1F79A8389838BA58F5F8BA78BA582300D
:1020900008F428CF8CA58F5F8CA78CA58F3008F40F
:1020A0001FCF36CD629FD001739FF001829FE00D5C
:1020B000F11D649FE00DF11D929FF00D839FF00DC7
:1020C000749FF00D659FF00D9927729FB00DE11D73
:1020D000F91F639FB00DE11DF91FBD01CF01112450
:1020E0000895991B79E004C0991F961708F0961B74
:1020F000881F7A95C9F780950895A1E21A2EAA1B28
:10210000BB1BFD010DC0AA1FBB1FEE1FFF1FA217A7
:10211000B307E407F50720F0A21BB30BE40BF50BA4
:10212000661F771F881F991F1A9469F7609570952D
:10213000809590959B01AC01BD01CF0108952F9230
:102140003F924F925F926F927F928F929F92AF9247
:10215000BF92CF92DF92EF92FF920F931F93CF9394
:10216000DF93CDB7DEB7CA1BDB0B0FB6F894DEBF2B
:102170000FBECDBF09942A88398848885F846E8451
:102180007D848C849B84AA84B984C884DF80EE809B
:10219000FD800C811B81AA81B981CE0FD11D0FB6A4
:1021A000F894DEBF0FBECDBFED010895F894FFCFC8
:1021B00030303A30303A3030002A2A2A54494D45DE
:1021C000212A2A2A00000000000000000004050661
:1021D00007000102033132332034353620373839D5
:1021E000534C305245111D1D150E041F11000606DB
:0621F000041F041F110092
:00000001FF
